:100000000C9462000C948A000C948A000C948A0070
:100010000C948A000C948A000C948A000C948A0038
:100020000C948A000C948A000C948A000C94830926
:100030000C948A000C948A000C948A000C948A0018
:100040000C94E1080C948A000C9451090C942B092F
:100050000C948A000C948A000C948A000C948A00F8
:100060000C948A000C948A000000000024002700F1
:100070002A0000000000250028002B0000000008D6
:10008000000201000003040700000000000000005F
:1000900000000000230026002900040404040404D6
:1000A0000404020202020202030303030303010227
:1000B00004081020408001020408102001020408F6
:1000C0001020840A11241FBECFEFD8E0DEBFCDBFC1
:1000D00011E0A0E0B1E0E6EEF9E302C005900D9278
:1000E000A037B107D9F722E0A0E7B1E001C01D9227
:1000F000A835B207E1F710E0C2E6D0E004C02197CE
:10010000FE010E94C61BC136D107C9F70E940C0B25
:100110000C94F11C0C940000E0913E02EC3088F548
:1001200040913F0228E830E0241B310947FD339518
:10013000220F331F220F331F8217930784F0409141
:10014000400228E532E0241B310947FD3395220F98
:10015000331F220F331F821793070CF49C01225088
:100160003109220F331F4FB7F8948E2F90E0FC0116
:10017000EE0FFF1FE80FF91FE95EFD4F3283218369
:100180004FBF08954F925F926F927F928F929F928E
:10019000AF92BF92CF92DF92EF92FF920F931F9395
:1001A000CF93DF93CDB7DEB76C970FB6F894DEBF71
:1001B0000FBECDBF6D877E878F87988B298B3A8B3B
:1001C0004B8B5C8B2BA93CA94DA95EA96BAD7CAD7B
:1001D0008DAD9EAD0E9477196D8B7E8B8F8B988F26
:1001E0002D853E854F855889C801B7010E94771932
:1001F0006D837E838F8398872FA538A949A95AA933
:100200006FA978AD89AD9AAD0E947719698F7A8F01
:100210008B8F9C8F29893A894B895C89C601B501EE
:100220000E94771969877A878B879C872D813E8109
:100230004F8158856D897E898F89988D0E94481BD2
:100240004B015C0129853A854B855C85698D7A8DEA
:100250008B8D9C8D0E94481B9B01AC01C501B40194
:100260000E9477192B013C0120E030E0A9010E9497
:10027000E41987FF04C077FA709477F870942FE63A
:1002800032E143E85AE3C301B2010E94E41987FD59
:10029000E0C02BA93CA94DA95EA969897A898B89FF
:1002A0009C890E9477194B015C012FA538A949A9A7
:1002B0005AA96D857E858F8598890E9477196983F3
:1002C0007A838B839C83A5019401698D7A8D8B8DB4
:1002D0009C8D0E94481B6B017C0129813A814B81D6
:1002E0005C816D897E898F89988D0E94481B9B0156
:1002F000AC01C701B6010E9477196B017C0120E0B7
:1003000030E0A9010E94E41987FF04C0F7FAF094D5
:10031000F7F8F094A50194016D817E818F81988515
:100320000E94481B4B015C0129813A814B815C8111
:1003300069857A858B859C850E94481B9B01AC0151
:10034000C501B4010E9477194B015C0120E030E047
:10035000A9010E94E41987FF04C0B7FAB094B7F866
:10036000B094A3019201C701B6010E94E9196B0183
:100370007C0120E030E0A9010E94E41987FD69C0FA
:1003800020E030E040E85FE3C701B6010E94431B74
:1003900018160CF45EC0A3019201C501B4010E94BD
:1003A000E9194B015C0120E030E0A9010E94E41949
:1003B00087FD4FC020E030E040E85FE3C501B401B5
:1003C0000E94431B18160CF444C0A70196016D81CE
:1003D0007E818F8198850E94481B2D853E854F85A3
:1003E00058890E9478192196EEADFFAD2197608360
:1003F000718382839383A701960169857A858B85B2
:100400009C850E94481B29893A894B895C890E94F6
:1004100078192396EEADFFAD2397608371838283B5
:10042000938381E06C960FB6F894DEBF0FBECDBF0C
:10043000DF91CF911F910F91FF90EF90DF90CF90C0
:10044000BF90AF909F908F907F906F905F904F90F4
:10045000089580E0E7CFCF92DF92EF92FF92CF93A3
:10046000DF93B0914802A0E08111AB2F8091490247
:1004700090E0880F991FAC0140575F4FC0904E022B
:10048000D0904F02E0905002F090510230E020E016
:10049000FA01C591D491E881B90190E080E0EB23A5
:1004A000EA130AC02F5F3F4F6C157D058E059F052F
:1004B00078F36FEF7FEFCB01DF91CF91FF90EF905B
:1004C000DF90CF90089590E0FC01E458FF4F249115
:1004D000FC01E255FF4F3491FC01E656FF4FE491D9
:1004E000EE23C9F0222339F0233001F1A8F42130A2
:1004F00019F1223029F1F0E0EE0FFF1FEE58FF4F07
:10050000A591B4918FB7F894EC91611126C0309504
:100510003E233C938FBF08952730A9F02830C9F0BF
:10052000243049F7809180008F7D03C08091800046
:100530008F7780938000DFCF84B58F7784BDDBCF4A
:1005400084B58F7DFBCF8091B0008F778093B00012
:10055000D2CF8091B0008F7DF9CF3E2BDACFCF93F1
:10056000DF9390E0FC01E255FF4F249186569F4FA8
:10057000FC0184918823C9F090E0880F991FFC0149
:10058000E859FF4FA591B491FC01EE58FF4FC5917A
:10059000D49161110DC09FB7F8948C91209582235E
:1005A0008C938881282328839FBFDF91CF91089562
:1005B000623051F49FB7F8943C91822F8095832349
:1005C0008C93E8812E2BEFCF8FB7F894EC912E2BE4
:1005D0002C938FBFEACF3FB7F8948091720190912E
:1005E0007301A0917401B091750126B5A89B05C057
:1005F0002F3F19F00196A11DB11D3FBFBA2FA92FA2
:10060000982F8827BC01CD01620F711D811D911D9E
:1006100042E0660F771F881F991F4A95D1F708950A
:100620008F929F92AF92BF92CF92DF92EF92FF9202
:100630004B015C010E94EB026B017C010E94EB020A
:100640006C197D098E099F09683E734081059105EB
:10065000A8F321E0821A9108A108B10888EEC80E1B
:1006600083E0D81EE11CF11C81149104A104B104A3
:1006700029F7FF90EF90DF90CF90BF90AF909F90C1
:100680008F900895CF92DF92EF92FF920F931F9376
:10069000CF93DF93CDB7DEB7C054D1400FB6F894F7
:1006A000DEBF0FBECDBF2FB7F89480917601909139
:1006B0007701A0917801B09179012FBF40914A0252
:1006C00050914B0260914C0270914D028C019D0142
:1006D000041B150B260B370BB901A801403D5740F1
:1006E0006105710590F480915202C05CDE4F0FB637
:1006F000F894DEBF0FBECDBFDF91CF911F910F9158
:10070000FF90EF90DF90CF90089580934A029093EE
:100710004B02A0934C02B0934D02109245021092EE
:10072000440210924302109242021092410262E08F
:10073000809146020E94AF0261E070E080E090E0AC
:100740000E94100361E0809146020E94AF0260E0C7
:10075000809146020E946302809147028551823057
:1007600020F58BE291E10197F1F762E0809146027A
:100770000E94AF028091530290E08230910538F0E0
:10078000880F991F880F991F05970197F1F7F89423
:1007900080E00E942B026F3F7F4F8F4F9F4F61F48D
:1007A00010925202789480E0A0CF64E170E080E083
:1007B00090E00E941003D9CF81E00E942B026F3F8E
:1007C0007F4F8F4F9F4F61F38E010F5F1F4F6E0161
:1007D0008FEBC81A8EEFD80A780180E00E942B02B6
:1007E000F701608371838283938381E00E942B02EF
:1007F000F7016483758386839783F8E0EF0EF11C1D
:10080000EC14FD0451F7789430E020E0F801C0804A
:10081000D180E280F3804481558166817781FFEF4A
:10082000CF16DF06EF06FF0631F04F3F8FEF580778
:100830006807780719F410925202B5CFF90183E0E6
:10084000F595E7958A95E1F7EF5BFD4F8081880F7D
:10085000C416D506E606F70610F180832F5F3F4FDA
:10086000085F1F4F2832310589F6409145022091DB
:10087000410280914202280F3327331F80914302A7
:10088000280F311D80914402820F932F911D9927CB
:100890004817190681F681E08093520226CF8160C5
:1008A000DCCFAF92BF92CF92DF92EF92FF920F9385
:1008B0001F93CF93DF936C017B018B01040F151FF6
:1008C000EB015E01AE18BF08C017D10759F069915E
:1008D000D601ED91FC910190F081E02DC6010995C2
:1008E000892B79F7C501DF91CF911F910F91FF906F
:1008F000EF90DF90CF90BF90AF900895FC01538DA3
:10090000448D252F30E0842F90E0821B930B5417E9
:1009100010F0CF96089501970895FC01918D828D76
:10092000981761F0A28DAE0FBF2FB11D5D968C910F
:10093000928D9F5F9F73928F90E008958FEF9FEF4E
:100940000895FC01918D828D981731F0828DE80F0A
:10095000F11D858D90E008958FEF9FEF0895FC01C4
:10096000918D228D892F90E0805C9F4F821B910991
:100970008F73992708958AE791E00E94AF0421E0E0
:10098000892B09F420E0822F089580E090E0892BE4
:1009900029F00E94BB0481110C9400000895FC0111
:1009A000A48DA80FB92FB11DA35ABF4F2C91848DD0
:1009B00090E001968F739927848FA689B7892C932D
:1009C000A089B1898C91837080648C93938D848D80
:1009D000981306C00288F389E02D80818F7D808383
:1009E0000895EF92FF920F931F93CF93DF93EC0143
:1009F00081E0888F9B8D8C8D98131AC0E889F989C6
:100A0000808185FF15C09FB7F894EE89FF896083C8
:100A1000E889F98980818370806480839FBF81E049
:100A200090E0DF91CF911F910F91FF90EF9008958B
:100A3000F62E0B8D10E00F5F1F4F0F731127E02E66
:100A40008C8D8E110CC00FB607FCFACFE889F9899E
:100A5000808185FFF5CFCE010E94CF04F1CFEB8DD1
:100A6000EC0FFD2FF11DE35AFF4FF0829FB7F89472
:100A70000B8FEA89FB8980818062CFCFCF93DF9390
:100A8000EC01888D8823B9F0AA89BB89E889F989A6
:100A90008C9185FD03C0808186FD0DC00FB607FCDB
:100AA000F7CF8C9185FFF2CF808185FFEDCFCE010E
:100AB0000E94CF04E9CFDF91CF9108958F929F924A
:100AC000AF92BF92CF92DF92EF92FF920F931F935C
:100AD000CF93DF93EC018A819B818230910509F4E9
:100AE00053C03CF40197D9F1E12CF12C00E010E067
:100AF0003CC08330910509F49EC00497A9F7888112
:100B000099818130910509F4EFC0029769F7088552
:100B10001985C8010E945E056B017C010A84DB8592
:100B2000C02D20E030E0A9010E94431B181654F0AC
:100B3000CE010E945E0520E030E0A9010E94431B27
:100B4000181694F6CE010E945E059B01AC01C70108
:100B5000B6010E94431B18160CF0BDCFECC0EC810F
:100B6000FD81E088F18802891389B701C801DF910E
:100B7000CF911F910F91FF90EF90DF90CF90BF909A
:100B8000AF909F908F9008958881998181309105D1
:100B900039F1029709F0A8CFEC81FD81A088B188D6
:100BA000C288D388EE81FF81E088F18802891389A9
:100BB00020E030E0A901B501C6010E94431B1816D0
:100BC00054F020E030E0A901B701C8010E94431BA6
:100BD00018160CF089CF9501A601B701C80124C0F1
:100BE000EC81FD81A088B188C288D38820E030E004
:100BF000A901B501C6010E94431B18160CF074CF61
:100C0000EE81FF81E088F1880289138920E030E0DD
:100C1000A901B701C8010E94431B18160CF064CF4C
:100C20009701A801B501C6010E94E41987FF9DCF75
:100C3000750186019ACF888199818130910551F1A2
:100C4000029709F051CFEC81FD81E088F18802899B
:100C500013890884D985C02D20E030E0A901B701AF
:100C6000C8010E94431B18165CF0CE010E945E056D
:100C700020E030E0A9010E94431B18160CF034CF8D
:100C8000CE010E945E059701A8010E94E41987FF2A
:100C900022CF6BCFEC81FD81E088F1880289138936
:100CA00020E030E0A901B701C8010E94431B1816DB
:100CB0000CF01ACF0884D985C02DCE010E945E05A4
:100CC0004B015C0120E030E0A9010E94431B181693
:100CD0000CF00ACF9701A801C501B4010E94431B83
:100CE00018160CF0F8CE41CF08851985C8010E946E
:100CF0005E056B017C0120E030E0A9010E94431BEE
:100D000018160CF0F1CE0A84DB85C02DCE010E94AE
:100D10005E054B015C0120E030E0A9010E94431B0D
:100D200018160CF0E1CEA5019401C701B6010E948E
:100D3000E41987FFD0CEE801CECE0F931F93CF9357
:100D4000DF93EC018B0184E090E00E94CC1B0097C4
:100D5000D1F0FC011183008313821282E881F981B2
:100D6000309749F49983888381E0DF91CF911F9177
:100D70000F910895F9012281338121153105D1F7B1
:100D800093838283F1CF80E0F0CF0F931F93CF93B3
:100D9000DF93EC018B0184E090E00E94CC1B009774
:100DA000D1F0FC011183008313821282EE81FF8156
:100DB000309749F49F838E8381E0DF91CF911F911B
:100DC0000F910895F9012281338121153105D1F761
:100DD00093838283F1CF80E0F0CF8F929F92AF9286
:100DE000BF92CF92DF92EF92FF920F931F93CF9318
:100DF000DF93EC014A015B01680179018CE090E02E
:100E00000E94CC1BFC0180E0309799F01182108287
:100E100082829382A482B582C682D782E086F186DE
:100E200013861286A881B981109789F4F983E88323
:100E300081E0DF91CF911F910F91FF90EF90DF90B4
:100E4000CF90BF90AF909F908F900895DC011A963D
:100E50008D919C911B970097C9F7B183A0831B9636
:100E6000FC93EE931A97E4CF0F931F93CF93DF93E6
:100E7000EC018B0184E090E00E94CC1B0097D1F044
:100E8000FC011183008313821282EC81FD81309773
:100E900049F49D838C8381E0DF91CF911F910F9165
:100EA0000895F9012281338121153105D1F793830A
:100EB0008283F1CF80E0F0CF0F931F93CF93DF9326
:100EC000EC018B0184E090E00E94CC1B0097D1F0F4
:100ED000FC011183008313821282E881F98130972B
:100EE00049F49983888381E0DF91CF911F910F911D
:100EF0000895F9012281338121153105D1F79383BA
:100F00008283F1CF80E0F0CFFC0101900020E9F76F
:100F10003197AF01481B590BBC018AE791E00C9453
:100F200051048F929F92AF92BF920F931F93CF93D2
:100F3000DF93CDB7DEB7A1970FB6F894DEBF0FBE33
:100F4000CDBF19A2423008F44AE08E010F5D1F4F59
:100F5000842E912CB12CA12CA50194010E9446193C
:100F6000E62FB901CA01EA30F4F4E05DD801EE934E
:100F70008D01232B242B252B79F790E080E010970F
:100F800019F0CD010E948407A1960FB6F894DEBF38
:100F90000FBECDBFDF91CF911F910F91BF90AF904A
:100FA0009F908F900895E95CE1CFCF92DF92EF920E
:100FB000FF92CF93DF936B017C016DE28AE791E0B2
:100FC0000E94F104EC0166277727CB016C197D099B
:100FD0008E099F094AE00E9491078C0F9D1FDF91A7
:100FE000CF91FF90EF90DF90CF9008954F925F9256
:100FF0006F927F928F929F92AF92BF92CF92DF9229
:10100000EF92FF920F931F93CF936B017C01742E8D
:10101000AC019B010E94B51B882399F088E191E007
:10102000CF911F910F91FF90EF90DF90CF90BF90E5
:10103000AF909F908F907F906F905F904F900C94A7
:10104000840746015701E894B7F82FEF3FEF4FE7C9
:101050005FE7C501B4010E94B51B81110DC02FEFE0
:101060003FEF4FE75FE7C501B4010E94E41918168E
:101070001CF48CE191E0D4CF2FEF3FEF4FE75FE41A
:10108000C701B6010E94431B18161CF480E291E0D0
:10109000C7CF2FEF3FEF4FE75FECC701B6010E94CC
:1010A000E41987FDF3CF20E030E0A901C701B601C4
:1010B0000E94E41910E000E087FF0AC06DE28AE7B1
:1010C00091E00E94F1048C01F7FAF094F7F8F094A3
:1010D000C0E060E070E080E09FE37C1641F020E03B
:1010E00030E040E251E40E94E919CF5FF6CFA7015A
:1010F00096010E9478192B013C010E94621A4B0153
:101100005C014AE00E9491077C01E00EF11ECC23B5
:10111000C1F1C501B4010E94911A9B01AC01C30148
:10112000B2010E9477194B015C016EE28AE791E0FF
:101130000E94F104E80EF91EC15018F120E030E0E1
:1011400040E251E4C501B4010E94481B2B013C015F
:101150000E94621A4B01B12CA12C4AE0C501B401D6
:101160000E949107E80EF91EC501B4010E94911A70
:101170009B01AC01C301B2010E9477194B015C01D4
:10118000DBCFC701CF911F910F91FF90EF90DF90C0
:10119000CF90BF90AF909F908F907F906F905F9017
:1011A0004F900895CF93DF93EB016A857B8561159E
:1011B000710511F00E94D208CE01DF91CF910C94FD
:1011C000681C1F920F920FB60F9211242F933F931A
:1011D0008F939F93AF93BF93809176019091770106
:1011E000A0917801B09179013091710123E0230F32
:1011F0002D3758F50196A11DB11D209371018093E3
:10120000760190937701A0937801B0937901809152
:10121000720190917301A0917401B09175010196D2
:10122000A11DB11D8093720190937301A09374016D
:10123000B0937501BF91AF919F918F913F912F9185
:101240000F900FBE0F901F90189526E8230F02965F
:10125000A11DB11DD2CF1F920F920FB60F92112474
:101260002F933F934F935F936F937F938F939F93AE
:10127000AF93BF93EF93FF938AE791E00E94CF046F
:10128000FF91EF91BF91AF919F918F917F916F915E
:101290005F914F913F912F910F900FBE0F901F9034
:1012A00018951F920F920FB60F9211242F938F93C0
:1012B0009F93EF93FF93E0918A01F0918B018081DE
:1012C000E0919001F091910182FD1BC0908180918D
:1012D00093018F5F8F7320919401821741F0E09109
:1012E0009301F0E0E658FE4F958F80939301FF91B4
:1012F000EF919F918F912F910F900FBE0F901F90A4
:1013000018958081F4CF1F920F920FB60F9211247F
:101310002F933F934F935F936F937F938F939F93FD
:10132000AF93BF93CF93DF93EF93FF9380917001BF
:10133000C0913B02D0E087FF24C01092850010923C
:101340008400809170018F5F8093700180917001A3
:10135000082E000C990B8C179D0724F480917001C6
:101360008C30C4F180918400909185000496803483
:101370009C4908F47AC0809184009091850004967D
:1013800076C080917001082E000C990B8C179D0778
:10139000C4F6E09170018E2FEE0F990BFC01EE0F59
:1013A000FF1FE80FF91FE95EFD4F808186FFC9CF5F
:1013B000E09170018E2FEE0F990BFC01EE0FFF1FD5
:1013C000E80FF91FE95EFD4F808160E08F730E9496
:1013D0006302B7CF2091840030918500E0917001C5
:1013E0008E2FEE0F990BFC01EE0FFF1FE80FF91F78
:1013F000E95EFD4F81819281820F931F9093890056
:1014000080938800E09170018E2FEE0F990BFC0104
:10141000EE0FFF1FE80FF91FE95EFD4F808186FF89
:1014200011C0E09170018E2FEE0F990BFC01EE0FB1
:10143000FF1FE80FF91FE95EFD4F808161E08F73A8
:101440000E946302FF91EF91DF91CF91BF91AF9125
:101450009F918F917F916F915F914F913F912F91CC
:101460000F900FBE0F901F90189580E49CE9909309
:101470008900809388008FEF80937001E3CFCF9233
:10148000DF92EF92FF920F931F93E82FF92F05C081
:10149000015011092109310961F1908196239417B6
:1014A000B9F305C0015011092109310911F19081E9
:1014B00096239413F7CFC12CD12CE12CF12C0AC028
:1014C0008FEFC81AD80AE80AF80A0C151D052E0570
:1014D0003F0579F080818623841791F36C2D7D2D53
:1014E0008E2D9F2D1F910F91FF90EF90DF90CF9049
:1014F000089560E070E080E090E01F910F91FF9010
:10150000EF90DF90CF90089510927D0110927C01B2
:1015100088EE93E0A0E0B0E080937E0190937F019D
:10152000A0938001B09381018AE091E090937B01C8
:1015300080937A0185EC90E09093870180938601F7
:1015400084EC90E0909389018093880180EC90E096
:1015500090938B0180938A0181EC90E090938D01B0
:1015600080938C0182EC90E090938F0180938E01A8
:1015700086EC90E0909391018093900110929301FA
:1015800010929401109295011092960182E080933E
:10159000460286E180934702E0EBF0E0E491E093BD
:1015A0004802ECE9F0E0E491E093490280E89EE330
:1015B000A0E0B0E080934E0290934F02A0935002BF
:1015C000B093510280913B028C3010F591E0980F5E
:1015D00090933B0280933E0290E0FC01EE0FFF1FD0
:1015E000E80FF91FE95EFD4F88EB9BE09283818352
:1015F00086E090E00E94CC1BFC01118210821382D5
:1016000012821582148290933D0280933C020895C9
:101610008FEF80933E02ECCFCF93DF93CDB7DEB751
:10162000C454D1090FB6F894DEBF0FBECDBF789475
:1016300084B5826084BD84B5816084BD85B58260D7
:1016400085BD85B5816085BD80916E008160809388
:101650006E001092810080918100826080938100F1
:101660008091810081608093810080918000816001
:10167000809380008091B10084608093B10080915C
:10168000B00081608093B00080917A008460809384
:101690007A0080917A00826080937A0080917A004B
:1016A000816080937A0080917A00806880937A00CC
:1016B0001092C100E0918A01F0918B0182E0808359
:1016C000E0918601F09187011082E0918801F0910C
:1016D00089018FEC808310929201E0918E01F0914C
:1016E0008F0186E08083E0918C01F0918D018081F3
:1016F00080618083E0918C01F0918D018081886010
:101700008083E0918C01F0918D01808180688083DD
:10171000E0918C01F0918D0180818F7D808362E06A
:10172000809146020E94AF022FB7F8948091760113
:1017300090917701A0917801B09179012FBF805DE0
:101740009740A109B10980934A0290934B02A0935C
:101750004C02B0934D0287E38093530261E089E02D
:101760000E94AF0260E08AE00E94AF0260E080E188
:101770000E94AF0261E08BE00E94AF0261E087E06F
:101780000E94AF0280913E028C3008F051C061E0AF
:1017900086E00E94AF0280913E02282F30E0F901DE
:1017A000EE0FFF1FE20FF31FE95EFD4F9081907C6B
:1017B0009660908310923F02109240022CE0622FBC
:1017C0000E94BA1B829FB001112430E020E0AB01DF
:1017D000420F531FFA01EE0FFF1FE40FF51FE95EE2
:1017E000FD4F908196FD16C02F5F3F4F2C30310585
:1017F00071F781110FC01092800082E08093810008
:101800001092850010928400B19A80916F008260DE
:1018100080936F00E0913E028E2F90E0FC01EE0F6E
:10182000FF1FE80FF91FE95EFD4F80818064808310
:1018300084E190E00E94CC1B9AA389A3DC011D9255
:101840001D921D921C921397FC0114821582168220
:101850001782812C912C60EAA62E61E4B62E189690
:101860008D929D92AD92BC921B9780E090E0A0E299
:10187000B2E484879587A687B787108A118A128A6F
:10188000138A84E190E00E94CC1B9EA38DA320E0EC
:1018900030E040EF51E4DC012D933D934D935C9398
:1018A000139720E030E048E452E414962D933D93E2
:1018B0004D935C931797FC012087318742875387AC
:1018C00020E030E04CE852E41C962D933D934D937C
:1018D0005C931F97108A118A128A138A84E190E020
:1018E0000E94CC1B988F8F8B80E090E0A0E7B2E441
:1018F000EF89F88D80839183A283B383C12CD12C8F
:1019000070EAE72E72E4F72EC482D582E682F7826F
:10191000412C512C18EC612E12E4712E4086518618
:10192000628673864486558666867786108A118A13
:10193000128A138A84E190E00E94CC1B9C8F8B8FCB
:10194000DC011D921D921D921C921397FC011482C2
:1019500015821682178280E090E0A0E2B1E48087D1
:101960009187A287B38720E030E040EF51E42487DD
:10197000358746875787108A118A128A138A84E12D
:1019800090E00E94CC1B9AA789A7DC018D929D92C2
:10199000AD92BC92139720E030E048E452E41496F4
:1019A0002D933D934D935C931797FC0120873187CE
:1019B000428753871C96CD92DD92ED92FC921F9741
:1019C000108A118A128A138A84E190E00E94CC1B4B
:1019D0009E8F8D8F20E030E04CE852E4DC012D93A7
:1019E0003D934D935C931397FC014482558266822C
:1019F0007782812C912C08E4A02E03E4B02E189657
:101A00008D929D92AD92BC921B9784869586A686F8
:101A1000B78650961D921D921D921C92539784E199
:101A200090E00E94CC1B9EA78DA7FC011082118222
:101A30001282138214821582168217828086918602
:101A4000A286B38680E090E0A8ECB3E48487958713
:101A5000A687B787108A118A128A138A84E190E0D8
:101A60000E94CC1B7C0180E090E0A6E9B3E4F70182
:101A700080839183A283B38380E090E0AAEFB3E4F4
:101A800084839583A683B78380879187A287B38752
:101A900080E090E0AFE2B4E484879587A687B787BB
:101AA000108A118A128A138A84E190E00E94CC1B6A
:101AB0001C0180E090E0A6E1B4E4F1018083918311
:101AC000A283B38380E090E0A8E4B4E484839583A8
:101AD000A683B78380E090ECAFE7B4E4808791877A
:101AE000A287B38784879587A687B787108A118ACC
:101AF000128A138A84E190E00E94CC1B6C01FC01E5
:101B00001082118212821382148215821682178229
:101B100010861186128613861486158616861786F9
:101B2000108A118A128A138A84E190E00E94CC1BE9
:101B300098A78FA320E030E048E452E4DC012D9325
:101B40003D934D935C931397FC01448255826682CA
:101B5000778218964D925D926D927C921B9780E0F1
:101B600090E0A6E1B3E484879587A687B787108ABB
:101B7000118A128A138A84E190E00E94CC1B2C0106
:101B8000FC0180829182A282B38280E090E0AFE784
:101B9000B3E484839583A683B78380879187A287E4
:101BA000B38784879587A687B787108A118A128A98
:101BB000138A88E090E00E94CC1B8C01AA24A39495
:101BC000B12CF801B182A082128213821482158294
:101BD0001782168269A17AA1C8010E94C5066DA16B
:101BE0007EA1C8010E94C5066F89788DC8010E9438
:101BF000C50660903C0270903D02B801C3010E948E
:101C00005C0788E090E00E94CC1B8C0182E090E0B1
:101C1000F8019183808312821382148215821782C5
:101C200016826B8D7C8DC8010E94C50669A57AA5B8
:101C3000C8010E94C5066D8D7E8DC8010E94C50633
:101C4000B801C3010E945C0788E090E00E94CC1BB1
:101C50008C0183E090E0F8019183808312821382EB
:101C600014821582178216826DA57EA5C8010E9476
:101C7000C506B701C8010E94C506B101C8010E948E
:101C8000C506B801C3010E945C078AE090E00E948B
:101C9000CC1B8C01FC01B182A082128213821482BF
:101CA00015821782168282E090E00E94CC1BFC0114
:101CB00011821082D80119969C938E931897B601C1
:101CC000C8010E94C5066FA178A5C8010E94C5067B
:101CD000B201C8010E94C50684E090E00E94CC1BBE
:101CE0001C01009709F44AC0FC0111830083138290
:101CF0001282D8011696BC91B9A3F801F781FDA311
:101D0000EB2EFF2EE114F10469F109A11DA10115CB
:101D1000110519F1D8011296CD90DC901397C114DA
:101D2000D104D9F0AD90BC90F60180809180D501AE
:101D30002D913D914D915C91F40160817181828181
:101D400093810E94E41987FF06C0D8018D929C926E
:101D5000F601B182A0828601DACFD7011296ED900A
:101D6000FC90D0CFD3011296ED91FC911397309750
:101D700009F0DFC013963C922E9212978CE090E00F
:101D80000E94CC1B8C01FC011182108213821282F2
:101D90001582148217821682118610861386128687
:101DA0002F89388D2115310589F04B8D5C8D4115BA
:101DB000510561F081E090E09183808382E090E0C2
:101DC00093838283358324835783468382E090E024
:101DD0000E94CC1B7C01DC011D921C92B2010E946E
:101DE0009D0687E090E00E94CC1BFC01CC24C394AC
:101DF000D12CD182C082128214830383F682E582C1
:101E0000BC01C3010E9434078CE090E00E94CC1B0F
:101E10008C01FC01118210821382128215821482BD
:101E20001782168211861086138612862DA53EA56E
:101E30002115310521F0D382C2823583248382E0CB
:101E400090E00E94CC1B7C01DC011D921C92B2012F
:101E50000E949D0687E090E00E94CC1BFC0182E07E
:101E600090E091838083128214830383F682E5825B
:101E7000BF01C3010E9434078CE090E00E94CC1B9C
:101E80008C01FC011182108213821282158214824D
:101E90001782168211861086138612862D8D3E8D2E
:101EA0002115310531F081E090E093838283358301
:101EB000248382E090E00E94CC1B7C01DC011D9217
:101EC0001C926FA178A50E949D0687E090E00E9479
:101ED000CC1BFC0183E090E0918380831282148309
:101EE0000383F682E582BF01C3010E943407FE012D
:101EF0003996FC8BEB8B9E01235F3F4F3E8B2D8BE6
:101F00000E944203882309F4CCC0809147028B30A1
:101F100030F08D30A8F08551823008F4B0C020E058
:101F200030E040EC5FE72DA73EA74FA758AB28C095
:101F3000FC01828193810097D9F7338222821ECFE0
:101F40006091420270E090E080E00E94931A2DECD4
:101F50003CEC4CEC5DE30E94481B6B017C01609102
:101F6000410270E090E080E00E94931A9B01AC0176
:101F7000C701B6010E9478196DA77EA78FA798ABFD
:101F800060E089E00E94630283E090E00197F1F74E
:101F900061E089E00E94630283E290E00197F1F73B
:101FA00060E089E00E946302E8EBF0E06491E4EA1B
:101FB000F0E0E491F0E0EE0FFF1FE057FF4F859156
:101FC000949100E412E42FE030E0462F0E943F0A93
:101FD000611571058105910529F06F5F7F4F8F4F66
:101FE0009F4F9F700E94931A26E933E44BE05DE314
:101FF0000E94481B20E030E040E05FE30E94481B65
:1020000069AF7AAF8BAF9CAF82E480937C00809104
:102010007A00806480937A0080917A0086FDFCCFFC
:1020200040917800509179005EAF4DAF2DA53EA54F
:102030004FA558A9CA01B9010E94B51B81110AC058
:1020400029AD3AAD4BAD5CADCA01B9010E94B51BDB
:10205000882381F184E291E00E9484078BE391E080
:102060000E94840780E090E0892B09F449CF0E9408
:10207000BB04882309F444CF0E9400003CCF609148
:1020800041027091420276276727762790E080E030
:102090000E94911A2DEC3CEC4CEC5DE30E94481B35
:1020A0006BCF80E090E0A0ECBFE78DA79EA7AFA725
:1020B000B8AB66CF80913C0290913D029AA389A370
:1020C000DC012D903C90F101309791F0A081B1811D
:1020D0008D919C911197019709F052C02DA53EA5B5
:1020E0004FA558A912962D933D934D935C93159748
:1020F000F101309791F0A081B1818D919C91119760
:10210000029709F041C029AD3AAD4BAD5CAD1296D6
:102110002D933D934D935C931597F1013097B1F05A
:1021200000811181D8018D919C91039789F5EDADC6
:10213000FEADBF01FF0F880B990B0E94931AD801C7
:1021400012966D937D938D939C9315979101211514
:10215000310539F1F901A081B18116960D90BC913C
:10216000A02D1097C9F08D919C911197FC01108AB8
:10217000118A128A138A12960D90BC91A02DF1CF6C
:102180000280F381E02DA0CF0280F381E02DB1CF5A
:102190000280F381E02DC2CFD90112962D913C919E
:1021A000D6CFE9A1FAA10280F381E02DF8A7EFA331
:1021B0009F012115310509F4F1C0F901A081B18118
:1021C00016960D90BC91A02D109769F08D919C9161
:1021D0001197FC01108A118A128A138A12960D90A7
:1021E000BC91A02DF1CFD90112962D913C91E1CF58
:1021F0002F89388D498D5A8DC701B6010E94431B26
:1022000087FD3CC0A3019201C701B6010E94E419F9
:1022100087FF34C02F89388D498D5A8DC301B20193
:102220000E9477199B01AC0160E070E080E89FE3B9
:102230000E94E9194B015C01A3019201C701B6019B
:102240000E9477199B01AC01C501B4010E94481B93
:1022500020E030E040E85FE30E947819D801509612
:102260006D937D938D939C935397AB8DBC8D1296FC
:102270000D90BC91A02DBC8FAB8F9EC0F8018084C7
:102280009184A284B384A3019201C701B6010E9484
:10229000431B87FD14C0A5019401C701B6010E942C
:1022A000E419181664F020E030E040E85FE3D8015C
:1022B00050962D933D934D935C935397D6CFD80171
:1022C0001C962D913D914D915C911F972D8F3E8FC6
:1022D0004F8F58A3A5019401C701B6010E94431B6B
:1022E0001816A4F52D8D3E8D4F8D58A1C701B6014E
:1022F0000E94E419181654F12D8D3E8D4F8D58A172
:10230000C501B4010E9477199B01AC0160E070E047
:1023100080E89FE30E94E9192B013C01A50194018B
:10232000C701B6010E9477199B01AC01C301B2013C
:102330000E94481B20E030E040E85FE30E947819EB
:10234000F801608B718B828B938B8FCF2D8D3E8D9F
:102350004F8D58A1C701B6010E94431B18160CF0FF
:1023600084CF2D8D3E8D4F8D58A1C501B4010E94A3
:10237000E419811169C0A5019401C301B2010E9451
:10238000E419882309F460C0A30192016F89788D54
:10239000898D9A8D55C0F10122803380211431043A
:1023A00009F458C0F1010190F081E02DFEA3EDA3E6
:1023B000268137813C8F2B8F4B8D5C8D41155105CC
:1023C00051F3DA010D911C91EDA1FEA1C280D380E1
:1023D000E480F580D8012D913D914D915C9113974A
:1023E0002F8B388F498F5A8F14964D905D906D903A
:1023F0007C901797C701B6010E94E41987FFF8CEB9
:10240000A30192016F89788D898D9A8D0E94E419BC
:1024100081111AC0F801C084D184E284F384A3013D
:102420009201C701B6010E94E419882369F0D8011E
:102430001C962D913D914D915C911F97C701B6015E
:102440000E94E41981112FCFF801108A118A128A93
:10245000138A0BCFA9A1BAA114960D911C917724D0
:1024600073940115110509F0BAC0FE013596FA8B77
:10247000E98B2FA138A52115310509F45CC4D901D8
:102480008D909C90F40100851185D8016D917C910F
:102490006115710519F0C8010E94D208F801118276
:1024A0001082D40116966D907C906114710409F429
:1024B00040C2F3010081118120E030E0A901D80180
:1024C00050966D917D918D919C9153970E94431BE5
:1024D00018160CF083C1F801C080D180E280F3802F
:1024E000A701960164817581868197810E94E41914
:1024F000882359F000E010E09801B701A601D4014B
:1025000018968D919C910E94ED06F3010081118136
:10251000D80114962D903D904D905C901797A20194
:10252000910118966D917D918D919C911B970E94C0
:10253000E419F801811157C1F081FF8BD801119680
:10254000BC91BB8FF801F281FD8FD8011396BC912D
:10255000B9A3F801F485FDA3D8011D96FC901D9741
:102560001E96EC901E971F96DC907F896B8D9D8D3B
:1025700089A1272F362F492F582FBF2F6B2F7F2D43
:102580008E2D9D2D0E94E419882309F4B0C1F80115
:10259000A088B188C288138920E030E040E85FE37A
:1025A0006A2D7B2D8C2D912F0E94E419811159C029
:1025B00000E010E020E83FE3B201A101D401189649
:1025C0008D919C910E94ED06D301ED91FC91448583
:1025D00055856685778500E010E098012BC1D8010C
:1025E000ED90FC90F701838194810097B1F1C58053
:1025F000D680C114D10489F10E945E054B015C01B3
:1026000020E030E0A9010E94431B18161CF5D701F9
:1026100012967C92D601ED90FC90E114F104E9F061
:10262000F701C080D180D60150962D913D914D91FA
:102630005C915397C501B4010E94431B18162CF4FA
:10264000F601808A918AA28AB38AD7011296ED9008
:10265000FC90E3CFF7011282DDCFF80102811381F4
:1026600000CF2D863E864F86588A95014C2D512FDE
:10267000C901DA0189879A87AB87BC87FC89FF93F8
:102680008B898F939E899F93AD89AF931F93CF9230
:102690003F932F93DF92EF92FF92BDA1BF931F93C1
:1026A000CF923F932F93E9A1EF93FD8DFF932B8D55
:1026B0002F933F893F93A12CB12C30E8C32E3FE3E9
:1026C000D32E8201710120E030E0A901BF89AB8DDA
:1026D000FD8DE9A16B2F7A2F8F2F9E2F0E94C200B4
:1026E00009851A852B853C854D855E856F857889A2
:1026F000D40118968D919C910E94ED06D301ED9125
:10270000FC9160857185828593856D837E838F833F
:1027100098870089118932892389A801A32FB22FB4
:102720009D0109831A832B833C83E484F584068509
:10273000178521E030E02C0F3D1F3F932F933A89FE
:102740003F9329892F93BF93AF935F934F931F9329
:102750000F93FF92EF92BF93AF935F934F932381B9
:102760002F9322812F9321812F9320812F93A12CAE
:10277000B12C650120E030E040E85FE30E94C20038
:102780000FB6F894DEBF0FBECDBF09811A812B8131
:102790003C814D815E816F817885D40118968D9141
:1027A0009C910E94ED06D301ED91FC91C484D584E7
:1027B000E684F7842085318542855385C701B601BB
:1027C0000E94E419882351F000E010E09801B7015D
:1027D000A601F401808591850E94ED06D301129631
:1027E0006D907C9062CEC088D188E288F38820E02A
:1027F00030E040E85FE36C2D7D2D8E2D9F2D0E94F3
:10280000E41981111BC000E010E020E83FE3B201B1
:10281000A101D40118968D919C910E94ED06D301DF
:10282000ED91FC9100891189228933894085518578
:1028300062857385F40180859185B3CF2D863E86B0
:102840004F86588A9601A701C901DA0189879A87BC
:10285000AB87BC87D8017C9111966C911197129629
:102860009C91129713968C91BC89BF93EB89EF933F
:10287000FE89FF93AD89AF935F934F933F932F935F
:10288000D8011F96EC911F97EF931E96EC911E971F
:10289000EF931D96EC911D97EF931C96EC91EF939F
:1028A0005F934F933F932F938F939F936F937F9358
:1028B000A12CB12C20E8C22E2FE3D22E820171016F
:1028C00020E030E0A901DB01FC016B2F7A2F8F2F74
:1028D0009E2F0E94C20009851A852B853C854D8557
:1028E0005E856F857889F4018085918505CF00E04C
:1028F00010E09801B201A101F401808591850E9448
:10290000ED06D301ED91FC9100891189228933896B
:102910004481558166817781F401808591850E948B
:10292000ED06D301ED91FC9144815581668177815B
:1029300052CEF4010084F185E02D2196FFAFEEAF79
:10294000219720813181388F2F8B4F89588D4115E8
:10295000510509F4E8C11A01D1010D911C9101152D
:10296000110509F4D0C1AF89B88D12962D913D9112
:102970004D915C91159729A33AA34BA35CA3F10158
:10298000228133814481558169A17AA18BA19CA1C7
:102990000E94E41987FFC0C1D1010D90BC91A02D08
:1029A000BC8FAB8FEF89F88D0284F385E02DFEA3F9
:1029B000EDA3AB2B09F4A7C1AF89B88D16962D9165
:1029C0003D914D915C91199729A73AA74BA75CA718
:1029D000F101C280D380E480F58086809780A08456
:1029E000B184A5019401AB8DBC8D16966D917D913E
:1029F0008D919C9119970E94771925966CAF7DAFA8
:102A00008EAF9FAF259729A13AA14BA15CA1EDA163
:102A1000FEA162817381848195810E94771969ABDF
:102A20007AAB8BAB9CABA7019601AB8DBC8D12969C
:102A30006D917D918D919C9115970E9477192B0135
:102A40003C0129A53AA54BA55CA5EDA1FEA1668197
:102A50007781808591850E9477196DAB7EAB8FABB6
:102A600098AF29A93AA94BA95CA925966CAD7DAD73
:102A70008EAD9FAD25970E94481B6D8F7E8F8F8FE7
:102A800098A32DA93EA94FA958ADC301B2010E9438
:102A9000481B9B01AC016D8D7E8D8F8D98A10E948E
:102AA00077196D8F7E8F8F8F98A320E030E0A9017A
:102AB0000E94E41987FF09C02D8D3E8D4F8D58A1CE
:102AC00050582D8F3E8F4F8F58A32FE632E143E8A9
:102AD0005AE36D8D7E8D8F8D98A10E94E41987FD3C
:102AE0001FC1A501940169A57AA58BA59CA50E948B
:102AF00077194B015C01A701960169A17AA18BA10D
:102B00009CA10E9477196B017C01A5019401C3016E
:102B1000B2010E94481B2B013C01A701960125969A
:102B20006CAD7DAD8EAD9FAD25970E94481B9B017E
:102B3000AC01C301B2010E9477192B013C0120E0D6
:102B400030E0A9010E94E41987FF04C077FA70946D
:102B500077F87094A501940169A97AA98BA99CA919
:102B60000E94481B4B015C01A70196016DA97EA93B
:102B70008FA998AD0E94481B9B01AC01C501B4010F
:102B80000E9477196B017C0120E030E0A9010E94CE
:102B9000E41987FF04C0F7FAF094F7F8F0942D8D4C
:102BA0003E8D4F8D58A1C301B2010E94E9194B011E
:102BB0005C0120E030E0A9010E94E41918160CF035
:102BC000AFC020E030E040E85FE3C501B4010E94FF
:102BD000431B87FFA5C02D8D3E8D4F8D58A1C7018A
:102BE000B6010E94E9196B017C0120E030E0A901E7
:102BF0000E94E41918160CF093C020E030E040E881
:102C00005FE3C701B6010E94431B87FF89C08CE0C8
:102C100090E00E94CC1B8C01009709F481C0EB8DE1
:102C2000FC8DDC01ED93FC93A501940169A97AA9BF
:102C30008BA99CA90E94481B29A13AA14BA15CA188
:102C40000E947819D80112966D937D938D939C9371
:102C50001597A50194016DA97EA98FA998AD0E9431
:102C6000481B29A53AA54BA55CA50E947819F80137
:102C700066837783808791872DA13EA13387228742
:102C8000AF89B88D1B961C930E931A97F901118387
:102C90000083D1010D931C93EB8DFC8D138702876C
:102CA000D1011A96ED90FC90C1010E94681CE114BC
:102CB000F10401F1F8012281338144815581D7016A
:102CC00012966D917D918D919C9115970E94E419BA
:102CD000811124C0F8012681378140855185D701B3
:102CE00016966D917D918D919C9119970E94E41992
:102CF000811114C02196EEADFFAD21970190F081B6
:102D0000E02DF88FEF8BAF89B88D1A960D90BC919E
:102D1000A02DB88FAF8B19CE18011ECE1701C0CFD2
:102D20002B8C3C8C39CEEFA1F8A50280F381E02DED
:102D3000F8A7EFA39ECBE0913C02F0913D02028008
:102D4000F381E02D309709F422C2A081B1818D91E9
:102D50009C911197019799F71896ED91FC918080BD
:102D6000918019AA1AAA1BAA1CAA1DAA1EAA1FAAE8
:102D700018AE8114910409F45CC1D4011A960D9027
:102D8000BC91A02DBE8FAD8FAB2B09F452C1F401C5
:102D900036802780F085FF8BD4011996BC91BB8FBC
:102DA000ED8DFE8DF681FFA3AD8DBE8D1796BC9186
:102DB000B9A3ED8DFE8DF085FDA3AD8DBE8D199669
:102DC000BC91B9A72FA139A14F2F5B2F632D722D75
:102DD0008F899B8D0E94E419882309F444C0F40173
:102DE000C280D380E480F580AD8DBE8D12962D918A
:102DF0003D914D915C911597C701B6010E94E41970
:102E0000811131C020E030E0A901632D722D8F893E
:102E10009B8D0E94431B18160CF003C1A32CB22CEF
:102E20000F891B8DA7019601B501C8010E94481B9F
:102E30009B01AC016DA97EA98FA998AD0E9478195C
:102E40006DAB7EAB8FAB98AF9501A80169A97AA94C
:102E50008BA99CA90E94781969AB7AAB8BAB9CAB10
:102E60008D8C9E8C86CF20E030E0A901632D722DE1
:102E70008F899B8D0E94E419882359F020E030E06F
:102E8000A9016FA179A18DA199A50E94E4198111D1
:102E900053C020E030E0A901632D722D8F899B8DF6
:102EA0000E94431B18160CF042C0A32CB22C0F89B1
:102EB0001B8DF401C280D380E480F580A7019601C8
:102EC000AD8DBE8D12966D917D918D919C911597D2
:102ED0000E9477192B013C019501A8010E94481B13
:102EE00020E030E040E05FE30E94481B5B018C0182
:102EF0002FA139A14DA159A5632D722D8F899B8DCD
:102F00000E94E41920E030E040EC5FE387FD04C05C
:102F100020E030E040E450E4C301B2010E94E9192E
:102F2000A70196010E9478196B017C017BCFAFA0AD
:102F3000B9A00DA119A5BDCF20E030E0A901632DF6
:102F4000722D8F899B8D0E94431B18160CF069C04F
:102F500020E030E0A9016FA179A18DA199A50E947F
:102F6000431B18160CF05DC0F401C280D380E480CE
:102F7000F580AD8DBE8D12968D909D90AD90BC90DC
:102F800015972FA139A14DA159A5632D722D8F89B8
:102F90009B8D0E94E419A701960181111DC0C501F6
:102FA000B4010E9477194B015C0120E030E040E061
:102FB0005FE30E94481BA70196010E9478196B01EC
:102FC0007C01A5019401632D722D8F899B8D0E9438
:102FD000481B5B018C0126CFC501B4010E94771903
:102FE0002B013C012FA139A14DA159A5632D722DB3
:102FF0008F899B8D0E94781920E030E040E05FE3EC
:103000000E94481BA30192010E94481B5B018C0196
:1030100020E030E040E05FE3C301B2010E94481BC2
:103020007FCFC12CD12C7601A12CB12C00E010E077
:10303000F9CE20E030E0A90169A97AA98BA99CA961
:103040000E94E419882309F4A2C029A93AA94BA92E
:103050005CA96DA97EA98FA998AD0E94E9190E946B
:103060005B1A6B018B0161E08BE00E94AF02C1141F
:10307000D10409F090C060E08BE00E946302EDADE6
:10308000FEAD61E0EC32F1400CF060E087E00E94C0
:10309000630280913F0208E810E0081B110987FDD8
:1030A0001395000F111F000F111F20E030E040EFBB
:1030B00051E469AD7AAD8BAD9CAD0E94E41987FFF8
:1030C000B1C04801110FAA08BB088091400228E551
:1030D00032E0281B310987FD3395220F331F220F61
:1030E000331F032E000C440B550B281939094A09CC
:1030F0005B09AAE5B0E00E943B1924EB30E040E018
:1031000050E00E941C19DA01C901880D991DAA1D01
:10311000BB1D0E948C008EE391E00E94840742E078
:103120006DA57EA58FA598A90E94F60789E491E078
:103130000E94840742E069AD7AAD8BAD9CAD0E94E0
:10314000F60785E591E00E9484074DAD5EADBA01BA
:10315000550F880B990B97FF67C00E94D5078CE528
:1031600091E00E948407B601DD0C880B990B97FF54
:103170005FC00E94D5078BE391E00E94840764EF53
:1031800071E080E090E00E9410030C94321060E047
:1031900070E0CB0164CF0F3F110511F461E06CCFFB
:1031A000E7E8F0E0E491E33019F140F4E130B1F008
:1031B000E230C9F0003811058CF75DCFE73011F12E
:1031C000E83041F1E430B1F7809180008062809373
:1031D0008000D0928B00C0928A0051CF84B5806865
:1031E00084BDC7BC4CCF84B5806284BDC8BC47CF0A
:1031F00080918000806880938000D0928900C09286
:1032000088003DCF8091B00080688093B000C0926C
:10321000B30035CF8091B00080628093B000C0923F
:10322000B4002DCFC80175CF4AE00E94910797CF17
:103230004AE00E9491079FCF052E97FB1EF4009451
:103240000E94331957FD07D00E94461907FC03D08E
:103250004EF40C94331950954095309521953F4F7D
:103260004F4F5F4F089590958095709561957F4F72
:103270008F4F9F4F08950E946819A59F900DB49F8E
:10328000900DA49F800D911D11240895A1E21A2E86
:10329000AA1BBB1BFD010DC0AA1FBB1FEE1FFF1FFA
:1032A000A217B307E407F50720F0A21BB30BE40B4A
:1032B000F50B661F771F881F991F1A9469F7609591
:1032C0007095809590959B01AC01BD01CF0108954B
:1032D000A29FB001B39FC001A39F700D811D112457
:1032E000911DB29F700D811D1124911D089550589C
:1032F000BB27AA270E948F190C94091B0E94FB1A56
:1033000038F00E94021B20F039F49F3F19F426F494
:103310000C94F81A0EF4E095E7FB0C94F21AE92FDE
:103320000E941A1B58F3BA176207730784079507A0
:1033300020F079F4A6F50C943C1B0EF4E0950B2ECE
:10334000BA2FA02D0B01B90190010C01CA01A001F7
:103350001124FF27591B99F0593F50F4503E68F152
:103360001A16F040A22F232F342F4427585FF3CF93
:10337000469537952795A795F0405395C9F77EF464
:103380001F16BA0B620B730B840BBAF09150A1F0AD
:10339000FF0FBB1F661F771F881FC2F70EC0BA0F33
:1033A000621F731F841F48F4879577956795B795BB
:1033B000F7959E3F08F0B0CF9395880F08F09927B6
:1033C000EE0F9795879508950E94CE1A08F481E034
:1033D00008950E94FD190C94091B0E94021B58F0CD
:1033E0000E94FB1A40F029F45F3F29F00C94F21A76
:1033F00051110C943D1B0C94F81A0E941A1B68F38F
:103400009923B1F3552391F3951B550BBB27AA279D
:1034100062177307840738F09F5F5F4F220F331FD7
:10342000441FAA1FA9F335D00E2E3AF0E0E832D09F
:1034300091505040E695001CCAF72BD0FE2F29D0A2
:10344000660F771F881FBB1F261737074807AB0774
:10345000B0E809F0BB0B802DBF01FF2793585F4FE9
:103460003AF09E3F510578F00C94F21A0C943D1BF3
:103470005F3FE4F3983ED4F3869577956795B795CB
:10348000F7959F5FC9F7880F911D9695879597F9D6
:103490000895E1E0660F771F881FBB1F621773074F
:1034A0008407BA0720F0621B730B840BBA0BEE1F64
:1034B00088F7E09508950E94621A6894B1110C94FF
:1034C0003D1B08950E94221B88F09F5798F0B92F4A
:1034D0009927B751B0F0E1F0660F771F881F991F49
:1034E0001AF0BA95C9F714C0B13091F00E943C1B94
:1034F000B1E008950C943C1B672F782F8827B85FA4
:1035000039F0B93FCCF3869577956795B395D9F7A0
:103510003EF490958095709561957F4F8F4F9F4FAA
:103520000895E89409C097FB3EF4909580957095B6
:1035300061957F4F8F4F9F4F9923A9F0F92F96E9FF
:10354000BB279395F695879577956795B795F11174
:10355000F8CFFAF4BB0F11F460FF1BC06F5F7F4F11
:103560008F4F9F4F16C0882311F096E911C0772323
:1035700021F09EE8872F762F05C0662371F096E82C
:10358000862F70E060E02AF09A95660F771F881FFB
:10359000DAF7880F9695879597F90895990F00089F
:1035A000550FAA0BE0E8FEEF16161706E807F90715
:1035B000C0F012161306E407F50798F0621B730BB0
:1035C000840B950B39F40A2661F0232B242B252B31
:1035D00021F408950A2609F4A140A6958FEF811DD4
:1035E000811D089597F99F6780E870E060E0089575
:1035F0009FEF80EC089500240A941616170618060B
:103600000906089500240A941216130614060506E6
:103610000895092E0394000C11F4882352F0BB0F77
:1036200040F4BF2B11F460FF04C06F5F7F4F8F4FDA
:103630009F4F089557FD9058440F551F59F05F3F15
:1036400071F04795880F97FB991F61F09F3F79F0C4
:1036500087950895121613061406551FF2CF469546
:10366000F1DF08C0161617061806991FF1CF8695C8
:103670007105610508940895E894BB2766277727AC
:10368000CB0197F908950E94CE1A08F48FEF0895A0
:103690000E945B1B0C94091B0E94FB1A38F00E94CD
:1036A000021B20F0952311F00C94F21A0C94F81AD6
:1036B00011240C943D1B0E941A1B70F3959FC1F3BB
:1036C000950F50E0551F629FF001729FBB27F00DD0
:1036D000B11D639FAA27F00DB11DAA1F649F662725
:1036E000B00DA11D661F829F2227B00DA11D621F74
:1036F000739FB00DA11D621F839FA00D611D221F2E
:10370000749F3327A00D611D231F849F600D211D11
:10371000822F762F6A2F11249F5750409AF0F1F094
:1037200088234AF0EE0FFF1FBB1F661F771F881FFD
:1037300091505040A9F79E3F510580F00C94F21A29
:103740000C943D1B5F3FE4F3983ED4F38695779548
:103750006795B795F795E7959F5FC1F7FE2B880FA3
:10376000911D9695879597F908950E94CE1A880B1A
:10377000990B0895991B79E004C0991F961708F0DA
:10378000961B881F7A95C9F780950895EE0FFF1F45
:103790000590F491E02D09940F931F93CF93DF933D
:1037A0008230910510F482E090E0E0915602F091B1
:1037B000570230E020E0B0E0A0E0309799F4211506
:1037C000310509F44AC0281B390B24303105D8F5DE
:1037D0008A819B816115710589F1FB019383828345
:1037E000FE0111C0408151810281138148175907A0
:1037F000E0F04817590799F4109761F012960C936E
:10380000129713961C933296CF01DF91CF911F919F
:103810000F9108950093560210935702F4CF21158B
:10382000310551F04217530738F0A901DB019A0125
:10383000BD01DF01F801C1CFEF01F9CF909357022D
:1038400080935602CDCFFE01E20FF31F8193919337
:103850002250310939832883D7CF209154023091E7
:103860005502232B41F42091020130910301309342
:10387000550220935402209100013091010121153D
:10388000310541F42DB73EB7409104015091050137
:10389000241B350BE0915402F0915502E217F30717
:1038A000A0F42E1B3F0B2817390778F0AC014E5FB0
:1038B0005F4F2417350748F04E0F5F1F5093550296
:1038C00040935402819391939FCFF0E0E0E09CCF2E
:1038D000CF93DF930097E9F0FC01329713821282B5
:1038E000A0915602B0915702ED0130E020E0109710
:1038F000A1F420813181820F931F209154023091D5
:1039000055022817390709F061C0F0935502E0937A
:103910005402DF91CF910895EA01CE17DF07E8F551
:103920004A815B819E0141155105B1F7E901FB8395
:10393000EA8349915991C40FD51FEC17FD0761F433
:10394000808191810296840F951FE9019983888374
:10395000828193819B838A83F0E0E0E012968D91CF
:103960009C9113970097B9F52D913C911197CD013A
:103970000296820F931F209154023091550228170E
:10398000390739F6309751F51092570210925602C6
:10399000B0935502A0935402BCCFD383C28340811D
:1039A0005181840F951FC817D90761F44E5F5F4F8F
:1039B00088819981480F591F518340838A819B8157
:1039C000938382832115310509F0B0CFF09357021C
:1039D000E09356029ECFFD01DC01C0CF138212821C
:0639E000D7CFF894FFCFE1
:1039E60000005802800000000000F10451047E042B
:1039F6003E05AF048D04A1046E616E00696E66001B
:103A06006F7666004661696C656420746F20726526
:103A160061642073656E736F7273000D0A004875DA
:103A26006D69646974793A20002044697374616E23
:103A360063653A2000204C44523A2000204C6967C6
:103A4600687420496E74656E736974793A20000053
:00000001FF
